{
  "abi": [
    {
      "type": "constructor",
      "inputs": [
        {
          "name": "_communityModule",
          "type": "address",
          "internalType": "address"
        },
        {
          "name": "_sessionManagerModule",
          "type": "address",
          "internalType": "address"
        }
      ],
      "stateMutability": "nonpayable"
    },
    {
      "type": "function",
      "name": "COMMUNITY_MODULE",
      "inputs": [],
      "outputs": [
        {
          "name": "",
          "type": "address",
          "internalType": "address"
        }
      ],
      "stateMutability": "view"
    },
    {
      "type": "function",
      "name": "NAME",
      "inputs": [],
      "outputs": [
        {
          "name": "",
          "type": "string",
          "internalType": "string"
        }
      ],
      "stateMutability": "view"
    },
    {
      "type": "function",
      "name": "SESSION_MANAGER_MODULE",
      "inputs": [],
      "outputs": [
        {
          "name": "",
          "type": "address",
          "internalType": "address"
        }
      ],
      "stateMutability": "view"
    },
    {
      "type": "function",
      "name": "VERSION",
      "inputs": [],
      "outputs": [
        {
          "name": "",
          "type": "string",
          "internalType": "string"
        }
      ],
      "stateMutability": "view"
    },
    {
      "type": "function",
      "name": "configureSafe",
      "inputs": [
        {
          "name": "_safe",
          "type": "address",
          "internalType": "address"
        },
        {
          "name": "_safeModules",
          "type": "address[]",
          "internalType": "address[]"
        },
        {
          "name": "_guard",
          "type": "address",
          "internalType": "address"
        }
      ],
      "outputs": [],
      "stateMutability": "payable"
    },
    {
      "type": "function",
      "name": "createAccount",
      "inputs": [
        {
          "name": "_provider",
          "type": "address",
          "internalType": "address"
        },
        {
          "name": "_salt",
          "type": "uint256",
          "internalType": "uint256"
        }
      ],
      "outputs": [
        {
          "name": "",
          "type": "address",
          "internalType": "address"
        }
      ],
      "stateMutability": "nonpayable"
    },
    {
      "type": "function",
      "name": "createChainSpecificProxyWithNonce",
      "inputs": [
        {
          "name": "_singleton",
          "type": "address",
          "internalType": "address"
        },
        {
          "name": "initializer",
          "type": "bytes",
          "internalType": "bytes"
        },
        {
          "name": "saltNonce",
          "type": "uint256",
          "internalType": "uint256"
        }
      ],
      "outputs": [
        {
          "name": "proxy",
          "type": "address",
          "internalType": "contract SafeProxy"
        }
      ],
      "stateMutability": "nonpayable"
    },
    {
      "type": "function",
      "name": "createProxyWithCallback",
      "inputs": [
        {
          "name": "_singleton",
          "type": "address",
          "internalType": "address"
        },
        {
          "name": "initializer",
          "type": "bytes",
          "internalType": "bytes"
        },
        {
          "name": "saltNonce",
          "type": "uint256",
          "internalType": "uint256"
        },
        {
          "name": "callback",
          "type": "address",
          "internalType": "contract IProxyCreationCallback"
        }
      ],
      "outputs": [
        {
          "name": "proxy",
          "type": "address",
          "internalType": "contract SafeProxy"
        }
      ],
      "stateMutability": "nonpayable"
    },
    {
      "type": "function",
      "name": "createProxyWithNonce",
      "inputs": [
        {
          "name": "_singleton",
          "type": "address",
          "internalType": "address"
        },
        {
          "name": "initializer",
          "type": "bytes",
          "internalType": "bytes"
        },
        {
          "name": "saltNonce",
          "type": "uint256",
          "internalType": "uint256"
        }
      ],
      "outputs": [
        {
          "name": "proxy",
          "type": "address",
          "internalType": "contract SafeProxy"
        }
      ],
      "stateMutability": "nonpayable"
    },
    {
      "type": "function",
      "name": "getAddress",
      "inputs": [
        {
          "name": "_provider",
          "type": "address",
          "internalType": "address"
        },
        {
          "name": "_salt",
          "type": "uint256",
          "internalType": "uint256"
        }
      ],
      "outputs": [
        {
          "name": "",
          "type": "address",
          "internalType": "address"
        }
      ],
      "stateMutability": "view"
    },
    {
      "type": "function",
      "name": "getChainId",
      "inputs": [],
      "outputs": [
        {
          "name": "",
          "type": "uint256",
          "internalType": "uint256"
        }
      ],
      "stateMutability": "view"
    },
    {
      "type": "function",
      "name": "proxyCreationCode",
      "inputs": [],
      "outputs": [
        {
          "name": "",
          "type": "bytes",
          "internalType": "bytes"
        }
      ],
      "stateMutability": "pure"
    },
    {
      "type": "event",
      "name": "ProxyCreation",
      "inputs": [
        {
          "name": "proxy",
          "type": "address",
          "indexed": true,
          "internalType": "contract SafeProxy"
        },
        {
          "name": "singleton",
          "type": "address",
          "indexed": false,
          "internalType": "address"
        }
      ],
      "anonymous": false
    }
  ],
  "bytecode": {
    "object": "0x60c060405234801561001057600080fd5b5060405161120238038061120283398101604081905261002f91610062565b6001600160a01b039182166080521660a052610095565b80516001600160a01b038116811461005d57600080fd5b919050565b6000806040838503121561007557600080fd5b61007e83610046565b915061008c60208401610046565b90509250929050565b60805160a0516111346100ce6000396000818160be0152818161088301526108ea0152600081816101ac015261082f01526111346000f3fe6080604052600436106100a75760003560e01c80639702dfb1116100645780639702dfb11461019a578063a3f4df7e146101ce578063d18af54d14610205578063e20bbf2b14610225578063ec9e80bb1461023a578063ffa1ad741461025a57600080fd5b806304f7b364146100ac5780631688f0b9146100fd5780633408e4701461011d57806353e5d935146101385780635fbfb9cf1461015a5780638cb84e181461017a575b600080fd5b3480156100b857600080fd5b506100e07f000000000000000000000000000000000000000000000000000000000000000081565b6040516001600160a01b0390911681526020015b60405180910390f35b34801561010957600080fd5b506100e0610118366004610bb3565b61028b565b34801561012957600080fd5b506040514681526020016100f4565b34801561014457600080fd5b5061014d610320565b6040516100f49190610c5c565b34801561016657600080fd5b506100e0610175366004610c76565b61034a565b34801561018657600080fd5b506100e0610195366004610c76565b610404565b3480156101a657600080fd5b506100e07f000000000000000000000000000000000000000000000000000000000000000081565b3480156101da57600080fd5b5061014d6040518060400160405280600b81526020016a32464120466163746f727960a81b81525081565b34801561021157600080fd5b506100e0610220366004610ca2565b610419565b610238610233366004610d0e565b6104ea565b005b34801561024657600080fd5b506100e0610255366004610bb3565b610660565b34801561026657600080fd5b5061014d60405180604001604052806005815260200164302e302e3160d81b81525081565b6000808380519060200120836040516020016102b1929190918252602082015260400190565b6040516020818303038152906040528051906020012090506102d4858583610692565b6040516001600160a01b038781168252919350908316907f4f51faf6c4561ff95f067657e43439f0f856d97c04d9ec9070a6199ad418e2359060200160405180910390a2509392505050565b60606040518060200161033290610ac7565b601f1982820381018352601f90910116604052919050565b6000806103578484610404565b9050803b156103675790506103fe565b6000610372826107b8565b9050600061038086866109c6565b905060006103a37341675c099f32341bf84bfc5382af534df5c7461a8484610692565b6040517341675c099f32341bf84bfc5382af534df5c7461a81529091506001600160a01b038216907f4f51faf6c4561ff95f067657e43439f0f856d97c04d9ec9070a6199ad418e2359060200160405180910390a293505050505b92915050565b6000806104118484610a08565b949350505050565b600080838360405160200161044592919091825260601b6001600160601b031916602082015260340190565b6040516020818303038152906040528051906020012060001c905061046b86868361028b565b91506001600160a01b038316156104e1576040516303ca56a360e31b81526001600160a01b03841690631e52b518906104ae9085908a908a908a90600401610de5565b600060405180830381600087803b1580156104c857600080fd5b505af11580156104dc573d6000803e3d6000fd5b505050505b50949350505050565b8260005b83518110156105fe57600084828151811061050b5761050b610e22565b6020908102919091010151604051632d9ad53d60e01b81526001600160a01b03808316600483015291925090841690632d9ad53d90602401602060405180830381865afa158015610560573d6000803e3d6000fd5b505050506040513d601f19601f820116820180604052508101906105849190610e38565b1561058f57506105ec565b60405163610b592560e01b81526001600160a01b03828116600483015284169063610b592590602401600060405180830381600087803b1580156105d257600080fd5b505af11580156105e6573d6000803e3d6000fd5b50505050505b806105f681610e5a565b9150506104ee565b5060405163e19a9dd960e01b81526001600160a01b03838116600483015282169063e19a9dd990602401600060405180830381600087803b15801561064257600080fd5b505af1158015610656573d6000803e3d6000fd5b5050505050505050565b6000808380519060200120836106734690565b60408051602081019490945283019190915260608201526080016102b1565b6000833b6106e75760405162461bcd60e51b815260206004820152601f60248201527f53696e676c65746f6e20636f6e7472616374206e6f74206465706c6f7965640060448201526064015b60405180910390fd5b6000604051806020016106f990610ac7565b601f1982820381018352601f90910116604081905261072691906001600160a01b03881690602001610e81565b6040516020818303038152906040529050828151826020016000f591506001600160a01b03821661078f5760405162461bcd60e51b815260206004820152601360248201527210dc99585d194c8818d85b1b0819985a5b1959606a1b60448201526064016106de565b8351156107b05760008060008651602088016000875af1036107b057600080fd5b509392505050565b604080516001808252818301909252606091600091906020808301908036833701905050905030816000815181106107f2576107f2610e22565b6001600160a01b039290921660209283029190910182015260408051600280825260608201835260009391929091830190803683370190505090507f00000000000000000000000000000000000000000000000000000000000000008160008151811061086157610861610e22565b60200260200101906001600160a01b031690816001600160a01b0316815250507f0000000000000000000000000000000000000000000000000000000000000000816001815181106108b5576108b5610e22565b60200260200101906001600160a01b031690816001600160a01b0316815250506000306001600160a01b031663e20bbf2b86847f000000000000000000000000000000000000000000000000000000000000000060405160240161091b93929190610ee7565b604051602081830303815290604052915060e01b6020820180516001600160e01b0383818316178352505050509050600063b63e800d60e01b846001308573edcf620325e82e3b9836eaaefdc4283e99dd7562600080600060405160240161098a989796959493929190610f1c565b60408051601f198184030181529190526020810180516001600160e01b03166001600160e01b0319909316929092179091529695505050505050565b6040516001600160601b0319606084901b1660208201526034810182905260009060540160405160208183030381529060405280519060200120905092915050565b600080610a1584846109c6565b90506001600160f81b03193082610a2a610320565b604051610a5091907341675c099f32341bf84bfc5382af534df5c7461a90602001610e81565b60405160208183030381529060405280519060200120604051602001610aa894939291906001600160f81b031994909416845260609290921b6001600160601b03191660018401526015830152603582015260550190565b6040516020818303038152906040528051906020012091505092915050565b61017280610f8d83390190565b6001600160a01b0381168114610ae957600080fd5b50565b8035610af781610ad4565b919050565b634e487b7160e01b600052604160045260246000fd5b604051601f8201601f1916810167ffffffffffffffff81118282101715610b3b57610b3b610afc565b604052919050565b600082601f830112610b5457600080fd5b813567ffffffffffffffff811115610b6e57610b6e610afc565b610b81601f8201601f1916602001610b12565b818152846020838601011115610b9657600080fd5b816020850160208301376000918101602001919091529392505050565b600080600060608486031215610bc857600080fd5b8335610bd381610ad4565b9250602084013567ffffffffffffffff811115610bef57600080fd5b610bfb86828701610b43565b925050604084013590509250925092565b60005b83811015610c27578181015183820152602001610c0f565b50506000910152565b60008151808452610c48816020860160208601610c0c565b601f01601f19169290920160200192915050565b602081526000610c6f6020830184610c30565b9392505050565b60008060408385031215610c8957600080fd5b8235610c9481610ad4565b946020939093013593505050565b60008060008060808587031215610cb857600080fd5b8435610cc381610ad4565b9350602085013567ffffffffffffffff811115610cdf57600080fd5b610ceb87828801610b43565b935050604085013591506060850135610d0381610ad4565b939692955090935050565b600080600060608486031215610d2357600080fd5b8335610d2e81610ad4565b925060208481013567ffffffffffffffff80821115610d4c57600080fd5b818701915087601f830112610d6057600080fd5b813581811115610d7257610d72610afc565b8060051b9150610d83848301610b12565b818152918301840191848101908a841115610d9d57600080fd5b938501935b83851015610dc75784359250610db783610ad4565b8282529385019390850190610da2565b809750505050505050610ddc60408501610aec565b90509250925092565b6001600160a01b03858116825284166020820152608060408201819052600090610e1190830185610c30565b905082606083015295945050505050565b634e487b7160e01b600052603260045260246000fd5b600060208284031215610e4a57600080fd5b81518015158114610c6f57600080fd5b600060018201610e7a57634e487b7160e01b600052601160045260246000fd5b5060010190565b60008351610e93818460208801610c0c565b9190910191825250602001919050565b600081518084526020808501945080840160005b83811015610edc5781516001600160a01b031687529582019590820190600101610eb7565b509495945050505050565b600060018060a01b03808616835260606020840152610f096060840186610ea3565b9150808416604084015250949350505050565b6000610100808352610f308184018c610ea3565b60ff8b1660208501526001600160a01b038a811660408601528482036060860152909150610f5e828a610c30565b978116608085015295861660a0840152505060ff9290921660c083015290911660e09091015294935050505056fe608060405234801561001057600080fd5b5060405161017238038061017283398101604081905261002f916100b9565b6001600160a01b0381166100945760405162461bcd60e51b815260206004820152602260248201527f496e76616c69642073696e676c65746f6e20616464726573732070726f766964604482015261195960f21b606482015260840160405180910390fd5b600080546001600160a01b0319166001600160a01b03929092169190911790556100e9565b6000602082840312156100cb57600080fd5b81516001600160a01b03811681146100e257600080fd5b9392505050565b607b806100f76000396000f3fe6080604052600080546001600160a01b0316632cf35bc960e11b823501602757808252602082f35b3682833781823684845af490503d82833e806040573d82fd5b503d81f3fea2646970667358221220eaaddd75a63b28423ea15a98ca99d3faeebf720cf05c8bc85426e94a3df53b7f64736f6c63430008140033a26469706673582212206e3f9d6536a8bb70f2a0869b1713208c1b8dbe2d14795c86940a22ba766bef1164736f6c63430008140033",
    "linkReferences": {}
  },
  "methodIdentifiers": {
    "COMMUNITY_MODULE()": "9702dfb1",
    "NAME()": "a3f4df7e",
    "SESSION_MANAGER_MODULE()": "04f7b364",
    "VERSION()": "ffa1ad74",
    "configureSafe(address,address[],address)": "e20bbf2b",
    "createAccount(address,uint256)": "5fbfb9cf",
    "createChainSpecificProxyWithNonce(address,bytes,uint256)": "ec9e80bb",
    "createProxyWithCallback(address,bytes,uint256,address)": "d18af54d",
    "createProxyWithNonce(address,bytes,uint256)": "1688f0b9",
    "getAddress(address,uint256)": "8cb84e18",
    "getChainId()": "3408e470",
    "proxyCreationCode()": "53e5d935"
  },
  "storageLayout": {
    "storage": [],
    "types": {}
  },
  "id": 118
}